{
  "transactions": [
    {
      "hash": "0x514e538a2b7a86805cf823f65e07bc847eab1d33c051bbbf0cc35bc380585ef9",
      "transactionType": "CALL",
      "contractName": null,
      "contractAddress": "0x191bca32826a10558be5db63cc658b8653f0f783",
      "function": "debug_add_signer(address)",
      "arguments": [
        "0x867A632ED88CC407FdC2813D74Fb326ac1333287"
      ],
      "transaction": {
        "from": "0x3337a1b7661f57d90f0dfea239a6d874e51916cb",
        "to": "0x191bca32826a10558be5db63cc658b8653f0f783",
        "gas": "0xe20a",
        "value": "0x0",
        "input": "0x8f851426000000000000000000000000867a632ed88cc407fdc2813d74fb326ac1333287",
        "nonce": "0x2",
        "chainId": "0x66eee"
      },
      "additionalContracts": [],
      "isFixedGasLimit": false
    }
  ],
  "receipts": [
    {
      "status": "0x1",
      "cumulativeGasUsed": "0xac67",
      "logs": [],
      "logsBloom": "0x00000000000000000000000000000000000000000000000000000000000000000000000000000000000000000000000000000000000000000000000000000000000000000000000000000000000000000000000000000000000000000000000000000000000000000000000000000000000000000000000000000000000000000000000000000000000000000000000000000000000000000000000000000000000000000000000000000000000000000000000000000000000000000000000000000000000000000000000000000000000000000000000000000000000000000000000000000000000000000000000000000000000000000000000000000000",
      "type": "0x2",
      "transactionHash": "0x514e538a2b7a86805cf823f65e07bc847eab1d33c051bbbf0cc35bc380585ef9",
      "transactionIndex": "0x1",
      "blockHash": "0x43451c38dc505225f6da79d585e072b9873a2fd9fd32d19b5dcc164a468f91a8",
      "blockNumber": "0x80d5c3d",
      "gasUsed": "0xac67",
      "effectiveGasPrice": "0x5f5e100",
      "from": "0x3337a1b7661f57d90f0dfea239a6d874e51916cb",
      "to": "0x191bca32826a10558be5db63cc658b8653f0f783",
      "contractAddress": null,
      "gasUsedForL1": "0x0",
      "l1BlockNumber": "0x7984fb"
    }
  ],
  "libraries": [],
  "pending": [],
  "returns": {},
  "timestamp": 1742734126,
  "chain": 421614,
  "commit": "805f248"
}